S00B0000534F532E7372656324
S11300000C942A000C943C000C943C000C943C008E
S11300100C943C000C943C000C943C000C943C006C
S11300200C943C000C943C000C943C000C94E201B5
S11300300C943C000C943C000C943C000C943C004C
S11300400C943C000C943C000C943C000C943C003C
S11300500C943C0011241FBECFE5D8E0DEBFCDBF19
S113006020E0A0E6B0E001C01D92A438B207E1F799
S11300700E94B6000C94D6020C94000063E083E066
S11300800E94B300089562E082E00E94B3000895E4
S113009063E083E00E94AF0062E082E00E94AF0070
S11300A00E948500089540E650E064E081E00E94EB
S11300B0900080916000813021F40E94D30210925C
S11300C06000089520E048E450E060E070E080E0E3
S11300D00E94130221E043E550E061E070E081E01A
S11300E00E94130221E04EE350E06CE271E082E0F2
S11300F00E94130221E043E450E064EF71E083E0E6
S11301000E9413020E94CA02089540E062E083E064
S11301100E94B90040E064E081E00E94B9000895C3
S11301200F931F93CF93DF931F92CDB7DEB78A014E
S11301301982AE014F5F5F4F0E943801811105C0E3
S11301408981F801808381E004C08981F80180837A
S113015080E00F90DF91CF911F910F91089541E0BE
S11301600E94B90008950E94760108950E946200D9
S1130170FFCF442319F04130E9F174C0813099F084
S113018028F08230E9F0833041F16EC02AB381E077
S113019090E002C0880F991F6A95E2F78095822348
S11301A08ABB80E0089527B381E090E002C0880F05
S11301B0991F6A95E2F78095822387BB80E00895B2
S11301C024B381E090E002C0880F991F6A95E2F79A
S11301D08095822384BB80E0089521B381E090E080
S11301E002C0880F991F6A95E2F78095822381BB2C
S11301F080E00895813091F028F08230D9F0833086
S113020029F134C02AB381E090E002C0880F991F1D
S11302106A95E2F7822B8ABB80E0089527B381E0D8
S113022090E002C0880F991F6A95E2F7822B87BB82
S113023080E0089524B381E090E002C0880F991F04
S11302406A95E2F7822B84BB80E0089521B381E0B4
S113025090E002C0880F991F6A95E2F7822B81BB58
S113026080E0089581E0089581E0089581E0089593
S1130270813099F028F08230E9F0833041F134C0C4
S113028089B390E002C0959587956A95E2F78170ED
S113029089BBFA01808380E0089586B390E002C0B0
S11302A0959587956A95E2F7817086BBFA018083FC
S11302B080E0089583B390E002C0959587956A9590
S11302C0E2F7817083BBFA01808380E0089580B3F4
S11302D090E002C0959587956A95E2F7817080BB9E
S11302E0FA01808380E0089581E00895813091F0DF
S11302F028F08230D9F0833029F130C02BB381E06B
S113030090E002C0880F991F6A95E2F782278BBBA1
S113031080E0089528B381E090E002C0880F991F1F
S11303206A95E2F7822788BB80E0089525B381E0CF
S113033090E002C0880F991F6A95E2F7822785BB77
S113034080E0089522B381E090E002C0880F991FF5
S11303506A95E2F7822782BB80E0089581E00895E0
S113036083B78F7783BF83B78F7B83BF83B7877F41
S113037083BF83B78F7E83BF83B78F7D83BF8FB7E0
S113038080688FBF89B7816089BF80E0089583B793
S1130390816083BF83B78D7F83BF83B78B7F83BF28
S11303A080E0089583B78E7F83BF83B78D7F83BF3B
S11303B083B78B7F83BF80E00895909383008093FD
S11303C0820008951F920F920FB60F9211242F935B
S11303D03F934F935F936F937F938F939F93AF93C9
S11303E0BF93EF93FF93809161008F5F80936100CF
S11303F08E3339F4E0918200F091830009951092D4
S1130400610012BEFF91EF91BF91AF919F918F91C7
S11304107F916F915F914F913F912F910F900FBEFC
S11304200F901F901895A82FB0E0FD01EE0FFF1F4D
S1130430EE0FFF1FEE0FFF1FEE59FF4F0380F481F5
S1130440E02DEF2BE1F48430E0F4AA0FBB1FAA0FD8
S1130450BB1FAA0FBB1FAE59BF4F8C9312967C9340
S11304606E93119714965C934E93139715962C9351
S1130470159717961C921E92169781E0089580E0B6
S1130480089580E0089590E0FC01EE0FFF1FEE0F49
S1130490FF1FEE0FFF1FEE59FF4F20812530D0F4D0
S11304A0FC01EE0FFF1FEE0FFF1FEE0FFF1FEE59B3
S11304B0FF4F23813481232B79F0880F991F880FF4
S11304C0991F880F991FFC01EE59FF4F1482138264
S11304D081E0089580E0089580E00895CF93C0E01E
S11304E054C08C2F90E0FC01EE0FFF1FEE0FFF1F96
S11304F0EE0FFF1FEE59FF4F0380F481E02D30977C
S113050009F442C0DC01AA0FBB1FAA0FBB1FAA0F2C
S1130510BB1FAE59BF4F16962D913C9117972115CD
S1130520310529F5DC01AA0FBB1FAA0FBB1FAA0FB7
S1130530BB1FAE59BF4F15962C91211105C00995CB
S11305408C2F0E94430220C0880F991F880F991F87
S1130550880F991FFC01EE59FF4F81819281019709
S1130560978386830380F481E02D09950DC0880F5D
S1130570991F880F991F880F991FFC01EE59FF4F8F
S11305802150310937832683CF5FC43008F4A9CFC3
S1130590CF9108958EE692E00E94DD010E94B001A1
S11305A00E94C70108950E94D2010895F894FFCFD4
S9030000FC
